:020000040800F2
:1000000058040020050100086B0D00089D0C000835
:10001000690D000871010008EF0F000800000000E2
:100020000000000000000000000000006F0D00084C
:1000300073010008000000006D0D0008710D00083C
:100040001F0100081F0100081F0100081F01000810
:100050001F0100081F0100081F0100081F01000800
:100060001F0100081F0100081F0100081F010008F0
:100070001F0100081F0100081F0100081F010008E0
:100080001F0100081F0100081F0100081F010008D0
:100090001F0100081F0100081F0100081F010008C0
:1000A0001F0100081F0100081F0100081F010008B0
:1000B0001F0100081F010008000000001F010008C8
:1000C0001F01000800000000000000001F010008E0
:1000D000000000001F0100081F01000800000000D0
:1000E0001F0100081F0100081F010008DFF810D0E1
:1000F00000F02CF80048004731100008AFF30080F2
:10010000580400200648804706480047FEE7FEE7FF
:10011000FEE7FEE7FEE7FEE7FEE7FEE7FEE7FEE7B7
:10012000C50D0008ED000008D2B201E000F8012B77
:10013000491EFBD270470022F6E710B513460A4667
:1001400004461946FFF7F0FF204610BD064C074D48
:1001500006E0E06840F0010394E807009847103497
:10016000AC42F6D3FFF7C6FF94100008B4100008A5
:10017000FEE770472DE9F84FDFF89C91002409F164
:10018000040A0AF1040B23460F270BF1040EBBE00F
:100190000125A5402A40AA4276D1DFF880C14E68E9
:1001A000A6EB0C0866452BD00DDC032E34D005DC05
:1001B00036B3012E19D0022E2FD11BE0112E16D0EE
:1001C000122E2AD119E0B8F5881F19D006DCB8F52F
:1001D000803F15D0B8F5801F1FD111E0B8F5001F82
:1001E0000ED0B8F5041F18D10AE0CB6815E0CB6833
:1001F0001B1D12E0CB6808330FE0CB680C330CE01A
:100200008B682BB1012B4FF0080303D0456104E04C
:10021000042302E0056100E00023FF2A01D806461E
:1002200001E000F104064FEA840501D9A5F120059B
:10023000D6F8008007FA05FC28EA0C0803FA05F551
:1002400048EA0508C6F800804D68ED005BD5344DDE
:10025000AE6946F00106AE61AD6924F0030605F013
:10026000010500952F4D06EB050CDCF80850A6079C
:10027000360F07FA06F825EA0805DFF8AC80404596
:1002800003D14FF0000810E03DE0DFF8A0804045CA
:1002900002D14FF0010808E0DFF89480404502D118
:1002A0004FF0020801E04FF0030808FA06F848EAA8
:1002B0000508CCF808804D68D9F80060ED034D467C
:1002C00001D5164300E096432E604D68DAF80060D1
:1002D000AD03554601D5164300E096432E604D68A8
:1002E000DBF80060ED025D4601D5164300E0964361
:1002F0002E604D68DEF80060AD02754601D51643EC
:1003000000E096432E60641C0A6832FA04F57FF41C
:100310003FAFBDE8F88F000000040140000011105D
:10032000001002400000014000080140000C0140A4
:100330000010014001488068704700000000002064
:1003400002488168027811448160704700000020F3
:10035000074810B5016841F010010160032000F06A
:1003600067F8002000F006F800F024F8002010BD27
:100370000020024070B50D4D04464FF47A71287884
:10038000B1FBF0F00A490968B1FBF0F000F0BEFAE9
:1003900048B9102C07D200222146501E00F028F840
:1003A00000206C6070BD012070BD000000000020C6
:1003B0000C0000200C4808B5816941F00101816101
:1003C000816901F001010091C16941F08051C16171
:1003D000C06900F0805000900448416821F0E0615D
:1003E00041F08061416008BD001002400000014002
:1003F000F0B40E4B1B680C46C3F30223C3F1070590
:10040000042D00D90425191D072901D2002300E07D
:10041000DB1E012606FA05F1491E214099409E4047
:10042000761E16403143F0BC00F0E2BD0CED00E05A
:10043000064900F0070208684FF6FF03184040EA3B
:100440000220034A10430860704700000CED00E0F2
:100450000000FA052DE9F0470F46050061D0434E34
:10046000306800F00700B84209D2306820F0070079
:1004700038433060306800F00700B84251D1286836
:100480003B4C810712D5400703D5606840F4E0601B
:1004900060602878000703D5606840F460506060B1
:1004A0006068A96820F0F000084360602878C00701
:1004B00028D06868012810D02168022810D0890748
:1004C00000292EDA616821F0030101436160FFF722
:1004D00031FF804641F288390DE021688903EFE75A
:1004E0008901EDE7FFF726FFA0EB0801494502D996
:1004F0000320BDE8F0876068696800F00C00B0EB8D
:10050000810FEFD1306800F00700B8420BD9306896
:1005100020F0070038433060306800F00700B84230
:1005200001D00120E5E72878400705D56068E96833
:1005300020F4E060084360602878000706D5606812
:10054000296920F4605040EAC100606000F018F8AA
:100550006168084AC1F30311515CC840064908604C
:1005600006480068FFF706FF0020C2E700200240AF
:1005700000100240841000080C000020040000203D
:1005800012A185B00FC98DE80F0014A0144A0068AD
:1005900004905168134801F00C03042B10D0082B71
:1005A0000ED1C1F38343C9031DF803000AD5516876
:1005B00004AAC1F34041515C0A4A5043B0FBF1F038
:1005C00005B0704708494843FAE7000002030405F4
:1005D000060708090A0B0C0D0E0F1010010200008F
:1005E0000010024000127A0000093D002DE9F84F8A
:1005F000040070D02078C04DC00749D06868C0F3AF
:100600008100012807D06868C0F38100022809D161
:100610006868C00306D52868800339D5606800285B
:10062000E7D035E06068B0F5803F0BD010B1B0F591
:10063000A02F11D0286820F480302860286820F48A
:10064000802002E0286840F480302860606890B123
:10065000FFF770FE06460AE0286840F48020286014
:10066000F0E700BFFFF766FE801B642873D8286898
:100670008003F7D50CE0FFF75DFE064605E000BFFE
:10068000FFF758FE801B6428F0D828688003F7D451
:1006900020789A4E80074FF001094FF0000839D5B5
:1006A000686810F00C0F07D06868C0F3810002285A
:1006B00009D16868C00306D42868800714D520696A
:1006C000012808D110E02069B0B1C6F80090FFF70A
:1006D00031FE074605E00AE1FFF72CFEC01B0228A9
:1006E000C4D828688007F7D52868616920F0F80029
:1006F00040EAC10028600DE0C6F80080FFF71AFE4E
:10070000074604E0FFF716FEC01B022823D828681E
:100710008007F7D4207800072CD57948A169D9B192
:10072000C0F80090FFF706FE074604E0FFF702FE60
:10073000C01B02280FD8686A8007F7D571484FF4AC
:10074000FA510068B0FBF1F0009000BF0098411E24
:100750000091FAD20EE080E0C0F80080FFF7EAFDD9
:10076000074604E0FFF7E6FDC01B022875D8686A5B
:100770008007F7D42078400760D5E8690027C000DB
:1007800008D4E86940F08050E861E869012700F08A
:10079000805000905C480168C90513D40168834605
:1007A00041F480710160FFF7C5FD824606E000BF9D
:1007B000FFF7C0FDA0EB0A0064284ED8DBF800006C
:1007C000C005F5D5E06801280AD008B1052813D086
:1007D000286A20F001002862286A20F0040002E064
:1007E000286A40F001002862E06841F2883B98B135
:1007F000FFF7A0FD82460BE0286A40F00400286263
:10080000EEE700BFFFF796FDA0EB0A0159455AD865
:10081000286A8007F6D50CE0FFF78CFD824605E0DC
:10082000FFF788FDA0EB0A0159454CD8286A8007DC
:10083000F6D41FB1E86920F08050E861E06988B320
:100840006968C1F38101022944D00228C6F860809A
:1008500004D0FFF76FFD044638E034E0FFF76AFD8F
:10086000074604E0FFF766FDC01B02282BD8286866
:100870008001F7D4206AB0F5803F05D16868A1688F
:1008800020F4003008436860D4E90801084369682F
:1008900021F4741108436860C6F86090FFF74AFDC0
:1008A000044606E025E000BFFFF744FD001B0228D8
:1008B00009D828688001F7D51BE000BFFFF73AFD93
:1008C000001B022802D90320BDE8F88F28688001A8
:1008D000F4D40EE00128F7D06868226A00F4803171
:1008E000914204D1616A00F47010884201D0012065
:1008F000EAE70020E8E70000001002400000424262
:10090000800442420C0000200070004010B5401EE0
:10091000B0F1807F01D3012010BD4FF0E024606171
:100920000F21601700F064FB0020A0610720206108
:10093000002010BD70B590F83C20012A23D001247E
:1009400080F83C40022280F83D2003685A689D6888
:1009500022F070060A6832435A600C4B02689A42D1
:1009600005D0B2F1804F02D0094B9A4204D14968B8
:1009700025F080031943916080F83D40002180F804
:100980003C10084670BD022070BD0000002C0140E4
:100990000004004010B5040003D094F83D0010B1ED
:1009A00007E0012010BD002084F83C00204600F044
:1009B0001FF8022084F83D00211D206800F004FA91
:1009C000012084F8460084F83E0084F83F0084F853
:1009D000400084F8410084F8420084F8430084F821
:1009E000440084F8450084F83D00002010BD00005C
:1009F00008B500680649884208D10648C16941F037
:100A00000201C161C06900F00200009008BD000051
:100A1000000400400010024070B5044690F83C000D
:100A2000012817D0012584F83C50022084F83D00AD
:100A30002068826822F0770222F47F428260086890
:100A4000502830D00DDC20284DD005DC98B310287C
:100A50003BD148E0022070BD302844D0402834D13A
:100A600039E0602828D0702806D0B0F5805F2CD0FF
:100A7000B0F5005F29D10AE0CB68D1E901212068F7
:100A800000F0DDF92068816841F0770109E0CB686A
:100A9000D1E90121206800F0D2F92068816841F491
:100AA0008041816011E0CA684968206800F07CFAE2
:100AB0005021206807E016E0CA684968206800F005
:100AC00084FA6021206800F0C4F984F83D500020C9
:100AD00084F83C0070BDCA684968206800F064FA78
:100AE00040212068EFE7226801461046EBE700004E
:100AF00010B586B000210091019102910391006828
:100B00001349884221D11348816941F00401816170
:100B1000816901F004010491816941F0080181615A
:100B20008069022400F008000490C020CDE9000490
:100B3000694609480394FFF71DFB0120CDE9000435
:100B4000694606480394FFF715FB06B010BD000088
:100B5000000400400010024000080140000C014069
:100B600010B5044690F83C0001280AD0012084F812
:100B70003C0042B1042A0AD0082A0CD00C2A11D118
:100B80000DE0022010BD206800F06CF90AE020683A
:100B900000F090F906E0206800F0B8F902E0206863
:100BA00000F0E0F9002084F83C0010BD10B504000E
:100BB00003D094F83D0010B107E0012010BD0020E3
:100BC00084F83C00204600F01EF8022084F83D0026
:100BD000211D206800F0F8F8012084F8460084F810
:100BE0003E0084F83F0084F8400084F8410084F817
:100BF000420084F8430084F8440084F8450084F8F7
:100C00003D00002010BD704710B50446022249B1D6
:100C100004290ED0082913D094F84100012816D0D9
:100C2000012010BD94F83E000128F9D184F83E203F
:100C30000FE094F83F000128F2D184F83F2008E04B
:100C400094F840000128EBD184F8402001E084F8BA
:100C500041200122206800F0E5F80E492068884212
:100C600003D1426C42F4004242642068884205D0BD
:100C7000B0F1804F02D00849884204D1816801F068
:100C80000701062903D0016841F00101016000203D
:100C900010BD0000002C014000040040FEE70000F1
:100CA00010B58EB000240794089409940A940B940C
:100CB0001C2168460C94FFF73EFA2A482849016037
:100CC0004FF4FA51C0E90114C910C0E9031484615A
:100CD000FFF760FE08B172B6FEE74FF48050079050
:100CE00007A92048FFF798FE08B172B6FEE71D4835
:100CF000FFF75CFF08B172B6FEE70B940BA9194829
:100D00000C94FFF717FE08B172B6FEE73020009092
:100D1000FA20CDE901040022694612480494FFF745
:100D20001FFF08B172B6FEE74FF4FA70019004227B
:100D300069460C48FFF714FF08B172B6FEE740F2AF
:100D4000EE200190082269460648FFF709FF08B126
:100D500072B6FEE70348FFF7CBFE0EB010BD0000F1
:100D60000004004010000020FEE7FEE770477047D7
:100D7000FFF7E6BA10B590B028216846FFF7DBF917
:100D800014210AA8FFF7D7F902200090012004904F
:100D900010200024059007946846FFF727FC08B14F
:100DA00072B6FEE70F20CDE90A040C940D940021E1
:100DB0000AA80E94FFF74EFB002801D072B6FEE79A
:100DC00010B010BD7047000070B50268134B144C92
:100DD0004FF08046984203D0B04201D0A04203D1E8
:100DE00022F070054A682A43984203D0B04201D0ED
:100DF000A04203D122F44074CA6822434C6922F015
:100E00008002224302608A68C2620A688262984253
:100E100001D1096901630121416170BD002C0140CC
:100E20000004004010B501F01F030121046A99403D
:100E30008C430462016A9A401143016210BD10B5EF
:100E4000846842EA032224F47F440A4322438260F6
:100E500010BD826822F070020A4342F007018160EF
:100E60007047000030B5026A22F001020262026A95
:100E70004368846924F073050C682C4322F0020552
:100E80008A682A430A4DA8420BD122F00805CA6895
:100E900023F440732A434D6922F004021D438B69F9
:100EA0002B434360846149684163026230BD0000A6
:100EB000002C014030B5026A22F010020262026A80
:100EC000436884690D6824F4E64444EA05248D6887
:100ED00022F0200242EA05120B4DA8420ED1CD6845
:100EE00022F0800242EA05124D6923F4406343EA8E
:100EF00085038D6922F0400243EA850343608461E3
:100F000049688163026230BD002C014030B5026A3D
:100F100022F480720262036A4268C46923F4007397
:100F200024F073050C682C438D6843EA05230C4DAF
:100F3000A8420ED1CD6823F4006343EA05234D692E
:100F400022F4405242EA05128D6923F4806342EA9A
:100F500005124260C4614968C163036230BD00008C
:100F6000002C014030B5026A22F480520262046A09
:100F70004268C3690D6823F4E64343EA05238D689C
:100F800024F4005444EA0534064DA84204D14D69C6
:100F900022F4804242EA85124260C36149680164DA
:100FA000046230BD002C014010B5036A046A24F0CD
:100FB00001040462846924F0F00444EA021423F07A
:100FC0000A020A438461026210BD10B5036A23F06D
:100FD000100303628369046A23F4704343EA023214
:100FE00024F0A00343EA01118261016210BDFEE713
:100FF0000907090E002804DB00F1E02080F8001446
:10100000704700F00F0000F1E02080F8141D7047D9
:1010100002E008C8121F08C1002AFAD170477047C1
:10102000002001E001C1121F002AFBD1704700001F
:1010300008B5FFF78DF9FFF79DFE1048816941F073
:1010400004018161816901F004010091816941F02D
:1010500008018161806900F008000090FFF720FE20
:1010600000210748FFF7D0FD04210548FFF7CCFD1C
:1010700008210348FFF7C8FDFEE70000001002400A
:101080001000002000000000000000000102030426
:1010900006070809B4100008000000201000000036
:1010A00010100008C41000081000002048040000C0
:1010B00020100008010000001000000000000000E7
:0410C0000024F40014
:04000005080000ED02
:00000001FF
